{
  "contractName": "SupplyChain",
  "abi": [
    {
      "inputs": [],
      "payable": false,
      "stateMutability": "nonpayable",
      "type": "constructor"
    },
    {
      "constant": true,
      "inputs": [
        {
          "internalType": "uint256",
          "name": "",
          "type": "uint256"
        }
      ],
      "name": "DIS",
      "outputs": [
        {
          "internalType": "address",
          "name": "addr",
          "type": "address"
        },
        {
          "internalType": "uint256",
          "name": "id",
          "type": "uint256"
        },
        {
          "internalType": "string",
          "name": "name",
          "type": "string"
        },
        {
          "internalType": "string",
          "name": "place",
          "type": "string"
        }
      ],
      "payable": false,
      "stateMutability": "view",
      "type": "function"
    },
    {
      "constant": true,
      "inputs": [
        {
          "internalType": "uint256",
          "name": "",
          "type": "uint256"
        }
      ],
      "name": "MAN",
      "outputs": [
        {
          "internalType": "address",
          "name": "addr",
          "type": "address"
        },
        {
          "internalType": "uint256",
          "name": "id",
          "type": "uint256"
        },
        {
          "internalType": "string",
          "name": "name",
          "type": "string"
        },
        {
          "internalType": "string",
          "name": "place",
          "type": "string"
        },
        {
          "internalType": "string",
          "name": "drugName",
          "type": "string"
        },
        {
          "internalType": "string",
          "name": "drugID",
          "type": "string"
        },
        {
          "internalType": "uint256",
          "name": "serialNumber",
          "type": "uint256"
        },
        {
          "internalType": "string",
          "name": "stock",
          "type": "string"
        }
      ],
      "payable": false,
      "stateMutability": "view",
      "type": "function"
    },
    {
      "constant": true,
      "inputs": [
        {
          "internalType": "uint256",
          "name": "",
          "type": "uint256"
        }
      ],
      "name": "MedicineStock",
      "outputs": [
        {
          "internalType": "string",
          "name": "id",
          "type": "string"
        },
        {
          "internalType": "string",
          "name": "name",
          "type": "string"
        },
        {
          "internalType": "string",
          "name": "description",
          "type": "string"
        },
        {
          "internalType": "uint256",
          "name": "RMSid",
          "type": "uint256"
        },
        {
          "internalType": "uint256",
          "name": "MANid",
          "type": "uint256"
        },
        {
          "internalType": "uint256",
          "name": "DISid",
          "type": "uint256"
        },
        {
          "internalType": "uint256",
          "name": "RETid",
          "type": "uint256"
        },
        {
          "internalType": "enum SupplyChain.STAGE",
          "name": "stage",
          "type": "uint8"
        },
        {
          "internalType": "string",
          "name": "retailer",
          "type": "string"
        },
        {
          "internalType": "uint256",
          "name": "orderQuantity",
          "type": "uint256"
        }
      ],
      "payable": false,
      "stateMutability": "view",
      "type": "function"
    },
    {
      "constant": true,
      "inputs": [],
      "name": "Owner",
      "outputs": [
        {
          "internalType": "address",
          "name": "",
          "type": "address"
        }
      ],
      "payable": false,
      "stateMutability": "view",
      "type": "function"
    },
    {
      "constant": true,
      "inputs": [
        {
          "internalType": "uint256",
          "name": "",
          "type": "uint256"
        }
      ],
      "name": "RET",
      "outputs": [
        {
          "internalType": "address",
          "name": "addr",
          "type": "address"
        },
        {
          "internalType": "uint256",
          "name": "id",
          "type": "uint256"
        },
        {
          "internalType": "string",
          "name": "name",
          "type": "string"
        },
        {
          "internalType": "string",
          "name": "place",
          "type": "string"
        }
      ],
      "payable": false,
      "stateMutability": "view",
      "type": "function"
    },
    {
      "constant": true,
      "inputs": [
        {
          "internalType": "uint256",
          "name": "",
          "type": "uint256"
        }
      ],
      "name": "RMS",
      "outputs": [
        {
          "internalType": "address",
          "name": "addr",
          "type": "address"
        },
        {
          "internalType": "uint256",
          "name": "id",
          "type": "uint256"
        },
        {
          "internalType": "string",
          "name": "name",
          "type": "string"
        },
        {
          "internalType": "string",
          "name": "place",
          "type": "string"
        }
      ],
      "payable": false,
      "stateMutability": "view",
      "type": "function"
    },
    {
      "constant": true,
      "inputs": [],
      "name": "disCtr",
      "outputs": [
        {
          "internalType": "uint256",
          "name": "",
          "type": "uint256"
        }
      ],
      "payable": false,
      "stateMutability": "view",
      "type": "function"
    },
    {
      "constant": true,
      "inputs": [],
      "name": "manCtr",
      "outputs": [
        {
          "internalType": "uint256",
          "name": "",
          "type": "uint256"
        }
      ],
      "payable": false,
      "stateMutability": "view",
      "type": "function"
    },
    {
      "constant": true,
      "inputs": [],
      "name": "medicineCtr",
      "outputs": [
        {
          "internalType": "uint256",
          "name": "",
          "type": "uint256"
        }
      ],
      "payable": false,
      "stateMutability": "view",
      "type": "function"
    },
    {
      "constant": true,
      "inputs": [],
      "name": "retCtr",
      "outputs": [
        {
          "internalType": "uint256",
          "name": "",
          "type": "uint256"
        }
      ],
      "payable": false,
      "stateMutability": "view",
      "type": "function"
    },
    {
      "constant": true,
      "inputs": [],
      "name": "rmsCtr",
      "outputs": [
        {
          "internalType": "uint256",
          "name": "",
          "type": "uint256"
        }
      ],
      "payable": false,
      "stateMutability": "view",
      "type": "function"
    },
    {
      "constant": true,
      "inputs": [
        {
          "internalType": "uint256",
          "name": "_medicineID",
          "type": "uint256"
        }
      ],
      "name": "showStage",
      "outputs": [
        {
          "internalType": "string",
          "name": "",
          "type": "string"
        }
      ],
      "payable": false,
      "stateMutability": "view",
      "type": "function"
    },
    {
      "constant": false,
      "inputs": [
        {
          "internalType": "address",
          "name": "_address",
          "type": "address"
        },
        {
          "internalType": "string",
          "name": "_name",
          "type": "string"
        },
        {
          "internalType": "string",
          "name": "_place",
          "type": "string"
        }
      ],
      "name": "addRMS",
      "outputs": [],
      "payable": false,
      "stateMutability": "nonpayable",
      "type": "function"
    },
    {
      "constant": false,
      "inputs": [
        {
          "internalType": "address",
          "name": "_address",
          "type": "address"
        },
        {
          "internalType": "string",
          "name": "_name",
          "type": "string"
        },
        {
          "internalType": "string",
          "name": "_place",
          "type": "string"
        },
        {
          "internalType": "string",
          "name": "_drugName",
          "type": "string"
        },
        {
          "internalType": "string",
          "name": "_drugID",
          "type": "string"
        },
        {
          "internalType": "uint256",
          "name": "_serialNumber",
          "type": "uint256"
        },
        {
          "internalType": "string",
          "name": "_stock",
          "type": "string"
        }
      ],
      "name": "addManufacturer",
      "outputs": [],
      "payable": false,
      "stateMutability": "nonpayable",
      "type": "function"
    },
    {
      "constant": false,
      "inputs": [
        {
          "internalType": "address",
          "name": "_address",
          "type": "address"
        },
        {
          "internalType": "string",
          "name": "_name",
          "type": "string"
        },
        {
          "internalType": "string",
          "name": "_place",
          "type": "string"
        }
      ],
      "name": "addDistributor",
      "outputs": [],
      "payable": false,
      "stateMutability": "nonpayable",
      "type": "function"
    },
    {
      "constant": false,
      "inputs": [
        {
          "internalType": "address",
          "name": "_address",
          "type": "address"
        },
        {
          "internalType": "string",
          "name": "_name",
          "type": "string"
        },
        {
          "internalType": "string",
          "name": "_place",
          "type": "string"
        }
      ],
      "name": "addRetailer",
      "outputs": [],
      "payable": false,
      "stateMutability": "nonpayable",
      "type": "function"
    },
    {
      "constant": false,
      "inputs": [
        {
          "internalType": "uint256",
          "name": "_medicineID",
          "type": "uint256"
        }
      ],
      "name": "RMSsupply",
      "outputs": [],
      "payable": false,
      "stateMutability": "nonpayable",
      "type": "function"
    },
    {
      "constant": false,
      "inputs": [
        {
          "internalType": "uint256",
          "name": "_medicineID",
          "type": "uint256"
        }
      ],
      "name": "Manufacturing",
      "outputs": [],
      "payable": false,
      "stateMutability": "nonpayable",
      "type": "function"
    },
    {
      "constant": false,
      "inputs": [
        {
          "internalType": "uint256",
          "name": "_medicineID",
          "type": "uint256"
        }
      ],
      "name": "Distribute",
      "outputs": [],
      "payable": false,
      "stateMutability": "nonpayable",
      "type": "function"
    },
    {
      "constant": false,
      "inputs": [
        {
          "internalType": "uint256",
          "name": "_medicineID",
          "type": "uint256"
        }
      ],
      "name": "Retail",
      "outputs": [],
      "payable": false,
      "stateMutability": "nonpayable",
      "type": "function"
    },
    {
      "constant": false,
      "inputs": [
        {
          "internalType": "uint256",
          "name": "_medicineID",
          "type": "uint256"
        }
      ],
      "name": "sold",
      "outputs": [],
      "payable": false,
      "stateMutability": "nonpayable",
      "type": "function"
    },
    {
      "constant": false,
      "inputs": [
        {
          "internalType": "string",
          "name": "_name",
          "type": "string"
        },
        {
          "internalType": "string",
          "name": "_description",
          "type": "string"
        },
        {
          "internalType": "string",
          "name": "_id",
          "type": "string"
        },
        {
          "internalType": "string",
          "name": "_retailer",
          "type": "string"
        },
        {
          "internalType": "uint256",
          "name": "_orderQuantity",
          "type": "uint256"
        }
      ],
      "name": "addMedicine",
      "outputs": [],
      "payable": false,
      "stateMutability": "nonpayable",
      "type": "function"
    }
  ],
  "bytecode": "0x60806040526000600155600060025560006003556000600455600060055534801561002957600080fd5b50336000806101000a81548173ffffffffffffffffffffffffffffffffffffffff021916908373ffffffffffffffffffffffffffffffffffffffff160217905550613402806100796000396000f3fe608060405234801561001057600080fd5b50600436106101425760003560e01c806386c18275116100b8578063bf8b2ef91161007c578063bf8b2ef914610d20578063cc40306914610faa578063dd28639814611242578063e101a2e014611260578063eb1a06b514611307578063eef5cb401461152a57610142565b806386c1827514610c2e5780639c03facb14610c5c578063a48d335a14610c8a578063a95f29d914610cb8578063b4a99a4e14610cd657610142565b8063438e9c4d1161010a578063438e9c4d146105c45780634def474a146105e257806359bf286f146106105780637e43d94d1461075d578063825d57ca1461077b578063857ddb0414610abc57610142565b80632a4af440146101475780632b0187ac146102b95780632b70b08d146104065780632bdb2e6b146105785780633d753a1c14610596575b600080fd5b6102b76004803603606081101561015d57600080fd5b81019080803573ffffffffffffffffffffffffffffffffffffffff1690602001909291908035906020019064010000000081111561019a57600080fd5b8201836020820111156101ac57600080fd5b803590602001918460018302840111640100000000831117156101ce57600080fd5b91908080601f016020809104026020016040519081016040528093929190818152602001838380828437600081840152601f19601f8201169050808301925050505050505091929192908035906020019064010000000081111561023157600080fd5b82018360208201111561024357600080fd5b8035906020019184600183028401116401000000008311171561026557600080fd5b91908080601f016020809104026020016040519081016040528093929190818152602001838380828437600081840152601f19601f820116905080830192505050505050509192919290505050611677565b005b6102e5600480360360208110156102cf57600080fd5b81019080803590602001909291905050506117c3565b604051808573ffffffffffffffffffffffffffffffffffffffff1673ffffffffffffffffffffffffffffffffffffffff1681526020018481526020018060200180602001838103835285818151815260200191508051906020019080838360005b83811015610361578082015181840152602081019050610346565b50505050905090810190601f16801561038e5780820380516001836020036101000a031916815260200191505b50838103825284818151815260200191508051906020019080838360005b838110156103c75780820151818401526020810190506103ac565b50505050905090810190601f1680156103f45780820380516001836020036101000a031916815260200191505b50965050505050505060405180910390f35b6105766004803603606081101561041c57600080fd5b81019080803573ffffffffffffffffffffffffffffffffffffffff1690602001909291908035906020019064010000000081111561045957600080fd5b82018360208201111561046b57600080fd5b8035906020019184600183028401116401000000008311171561048d57600080fd5b91908080601f016020809104026020016040519081016040528093929190818152602001838380828437600081840152601f19601f820116905080830192505050505050509192919290803590602001906401000000008111156104f057600080fd5b82018360208201111561050257600080fd5b8035906020019184600183028401116401000000008311171561052457600080fd5b91908080601f016020809104026020016040519081016040528093929190818152602001838380828437600081840152601f19601f820116905080830192505050505050509192919290505050611943565b005b610580611a8f565b6040518082815260200191505060405180910390f35b6105c2600480360360208110156105ac57600080fd5b8101908080359060200190929190505050611a95565b005b6105cc611b67565b6040518082815260200191505060405180910390f35b61060e600480360360208110156105f857600080fd5b8101908080359060200190929190505050611b6d565b005b61063c6004803603602081101561062657600080fd5b8101908080359060200190929190505050611c3f565b604051808573ffffffffffffffffffffffffffffffffffffffff1673ffffffffffffffffffffffffffffffffffffffff1681526020018481526020018060200180602001838103835285818151815260200191508051906020019080838360005b838110156106b857808201518184015260208101905061069d565b50505050905090810190601f1680156106e55780820380516001836020036101000a031916815260200191505b50838103825284818151815260200191508051906020019080838360005b8381101561071e578082015181840152602081019050610703565b50505050905090810190601f16801561074b5780820380516001836020036101000a031916815260200191505b50965050505050505060405180910390f35b610765611dbf565b6040518082815260200191505060405180910390f35b610aba600480360360e081101561079157600080fd5b81019080803573ffffffffffffffffffffffffffffffffffffffff169060200190929190803590602001906401000000008111156107ce57600080fd5b8201836020820111156107e057600080fd5b8035906020019184600183028401116401000000008311171561080257600080fd5b91908080601f016020809104026020016040519081016040528093929190818152602001838380828437600081840152601f19601f8201169050808301925050505050505091929192908035906020019064010000000081111561086557600080fd5b82018360208201111561087757600080fd5b8035906020019184600183028401116401000000008311171561089957600080fd5b91908080601f016020809104026020016040519081016040528093929190818152602001838380828437600081840152601f19601f820116905080830192505050505050509192919290803590602001906401000000008111156108fc57600080fd5b82018360208201111561090e57600080fd5b8035906020019184600183028401116401000000008311171561093057600080fd5b91908080601f016020809104026020016040519081016040528093929190818152602001838380828437600081840152601f19601f8201169050808301925050505050505091929192908035906020019064010000000081111561099357600080fd5b8201836020820111156109a557600080fd5b803590602001918460018302840111640100000000831117156109c757600080fd5b91908080601f016020809104026020016040519081016040528093929190818152602001838380828437600081840152601f19601f8201169050808301925050505050505091929192908035906020019092919080359060200190640100000000811115610a3457600080fd5b820183602082011115610a4657600080fd5b80359060200191846001830284011164010000000083111715610a6857600080fd5b91908080601f016020809104026020016040519081016040528093929190818152602001838380828437600081840152601f19601f820116905080830192505050505050509192919290505050611dc5565b005b610c2c60048036036060811015610ad257600080fd5b81019080803573ffffffffffffffffffffffffffffffffffffffff16906020019092919080359060200190640100000000811115610b0f57600080fd5b820183602082011115610b2157600080fd5b80359060200191846001830284011164010000000083111715610b4357600080fd5b91908080601f016020809104026020016040519081016040528093929190818152602001838380828437600081840152601f19601f82011690508083019250505050505050919291929080359060200190640100000000811115610ba657600080fd5b820183602082011115610bb857600080fd5b80359060200191846001830284011164010000000083111715610bda57600080fd5b91908080601f016020809104026020016040519081016040528093929190818152602001838380828437600081840152601f19601f820116905080830192505050505050509192919290505050611f8f565b005b610c5a60048036036020811015610c4457600080fd5b81019080803590602001909291905050506120db565b005b610c8860048036036020811015610c7257600080fd5b81019080803590602001909291905050506121ad565b005b610cb660048036036020811015610ca057600080fd5b8101908080359060200190929190505050612286565b005b610cc0612358565b6040518082815260200191505060405180910390f35b610cde61235e565b604051808273ffffffffffffffffffffffffffffffffffffffff1673ffffffffffffffffffffffffffffffffffffffff16815260200191505060405180910390f35b610fa8600480360360a0811015610d3657600080fd5b8101908080359060200190640100000000811115610d5357600080fd5b820183602082011115610d6557600080fd5b80359060200191846001830284011164010000000083111715610d8757600080fd5b91908080601f016020809104026020016040519081016040528093929190818152602001838380828437600081840152601f19601f82011690508083019250505050505050919291929080359060200190640100000000811115610dea57600080fd5b820183602082011115610dfc57600080fd5b80359060200191846001830284011164010000000083111715610e1e57600080fd5b91908080601f016020809104026020016040519081016040528093929190818152602001838380828437600081840152601f19601f82011690508083019250505050505050919291929080359060200190640100000000811115610e8157600080fd5b820183602082011115610e9357600080fd5b80359060200191846001830284011164010000000083111715610eb557600080fd5b91908080601f016020809104026020016040519081016040528093929190818152602001838380828437600081840152601f19601f82011690508083019250505050505050919291929080359060200190640100000000811115610f1857600080fd5b820183602082011115610f2a57600080fd5b80359060200191846001830284011164010000000083111715610f4c57600080fd5b91908080601f016020809104026020016040519081016040528093929190818152602001838380828437600081840152601f19601f82011690508083019250505050505050919291929080359060200190929190505050612383565b005b610fd660048036036020811015610fc057600080fd5b810190808035906020019092919050505061256d565b604051808973ffffffffffffffffffffffffffffffffffffffff1673ffffffffffffffffffffffffffffffffffffffff168152602001888152602001806020018060200180602001806020018781526020018060200186810386528c818151815260200191508051906020019080838360005b83811015611064578082015181840152602081019050611049565b50505050905090810190601f1680156110915780820380516001836020036101000a031916815260200191505b5086810385528b818151815260200191508051906020019080838360005b838110156110ca5780820151818401526020810190506110af565b50505050905090810190601f1680156110f75780820380516001836020036101000a031916815260200191505b5086810384528a818151815260200191508051906020019080838360005b83811015611130578082015181840152602081019050611115565b50505050905090810190601f16801561115d5780820380516001836020036101000a031916815260200191505b50868103835289818151815260200191508051906020019080838360005b8381101561119657808201518184015260208101905061117b565b50505050905090810190601f1680156111c35780820380516001836020036101000a031916815260200191505b50868103825287818151815260200191508051906020019080838360005b838110156111fc5780820151818401526020810190506111e1565b50505050905090810190601f1680156112295780820380516001836020036101000a031916815260200191505b509d505050505050505050505050505060405180910390f35b61124a6128cd565b6040518082815260200191505060405180910390f35b61128c6004803603602081101561127657600080fd5b81019080803590602001909291905050506128d3565b6040518080602001828103825283818151815260200191508051906020019080838360005b838110156112cc5780820151818401526020810190506112b1565b50505050905090810190601f1680156112f95780820380516001836020036101000a031916815260200191505b509250505060405180910390f35b6113336004803603602081101561131d57600080fd5b8101908080359060200190929190505050612be3565b604051808060200180602001806020018b81526020018a815260200189815260200188815260200187600581111561136757fe5b60ff1681526020018060200186815260200185810385528f818151815260200191508051906020019080838360005b838110156113b1578082015181840152602081019050611396565b50505050905090810190601f1680156113de5780820380516001836020036101000a031916815260200191505b5085810384528e818151815260200191508051906020019080838360005b838110156114175780820151818401526020810190506113fc565b50505050905090810190601f1680156114445780820380516001836020036101000a031916815260200191505b5085810383528d818151815260200191508051906020019080838360005b8381101561147d578082015181840152602081019050611462565b50505050905090810190601f1680156114aa5780820380516001836020036101000a031916815260200191505b50858103825287818151815260200191508051906020019080838360005b838110156114e35780820151818401526020810190506114c8565b50505050905090810190601f1680156115105780820380516001836020036101000a031916815260200191505b509e50505050505050505050505050505060405180910390f35b6115566004803603602081101561154057600080fd5b8101908080359060200190929190505050612ea4565b604051808573ffffffffffffffffffffffffffffffffffffffff1673ffffffffffffffffffffffffffffffffffffffff1681526020018481526020018060200180602001838103835285818151815260200191508051906020019080838360005b838110156115d25780820151818401526020810190506115b7565b50505050905090810190601f1680156115ff5780820380516001836020036101000a031916815260200191505b50838103825284818151815260200191508051906020019080838360005b8381101561163857808201518184015260208101905061161d565b50505050905090810190601f1680156116655780820380516001836020036101000a031916815260200191505b50965050505050505060405180910390f35b6000809054906101000a900473ffffffffffffffffffffffffffffffffffffffff1673ffffffffffffffffffffffffffffffffffffffff163373ffffffffffffffffffffffffffffffffffffffff16146116d057600080fd5b60046000815480929190600101919050555060405180608001604052808473ffffffffffffffffffffffffffffffffffffffff16815260200160045481526020018381526020018281525060096000600454815260200190815260200160002060008201518160000160006101000a81548173ffffffffffffffffffffffffffffffffffffffff021916908373ffffffffffffffffffffffffffffffffffffffff16021790555060208201518160010155604082015181600201908051906020019061179d929190613328565b5060608201518160030190805190602001906117ba929190613328565b50905050505050565b60096020528060005260406000206000915090508060000160009054906101000a900473ffffffffffffffffffffffffffffffffffffffff1690806001015490806002018054600181600116156101000203166002900480601f01602080910402602001604051908101604052809291908181526020018280546001816001161561010002031660029004801561189b5780601f106118705761010080835404028352916020019161189b565b820191906000526020600020905b81548152906001019060200180831161187e57829003601f168201915b505050505090806003018054600181600116156101000203166002900480601f0160208091040260200160405190810160405280929190818152602001828054600181600116156101000203166002900480156119395780601f1061190e57610100808354040283529160200191611939565b820191906000526020600020905b81548152906001019060200180831161191c57829003601f168201915b5050505050905084565b6000809054906101000a900473ffffffffffffffffffffffffffffffffffffffff1673ffffffffffffffffffffffffffffffffffffffff163373ffffffffffffffffffffffffffffffffffffffff161461199c57600080fd5b60026000815480929190600101919050555060405180608001604052808473ffffffffffffffffffffffffffffffffffffffff16815260200160025481526020018381526020018281525060076000600254815260200190815260200160002060008201518160000160006101000a81548173ffffffffffffffffffffffffffffffffffffffff021916908373ffffffffffffffffffffffffffffffffffffffff160217905550602082015181600101556040820151816002019080519060200190611a69929190613328565b506060820151816003019080519060200190611a86929190613328565b50905050505050565b60045481565b600081118015611aa757506001548111155b611ab057600080fd5b6000611abb33613024565b905060008111611aca57600080fd5b60036005811115611ad757fe5b6006600084815260200190815260200160002060070160009054906101000a900460ff166005811115611b0657fe5b14611b1057600080fd5b80600660008481526020019081526020016000206006018190555060046006600084815260200190815260200160002060070160006101000a81548160ff02191690836005811115611b5e57fe5b02179055505050565b60035481565b600081118015611b7f57506001548111155b611b8857600080fd5b6000611b93336130e5565b905060008111611ba257600080fd5b60026005811115611baf57fe5b6006600084815260200190815260200160002060070160009054906101000a900460ff166005811115611bde57fe5b14611be857600080fd5b80600660008481526020019081526020016000206005018190555060036006600084815260200190815260200160002060070160006101000a81548160ff02191690836005811115611c3657fe5b02179055505050565b600a6020528060005260406000206000915090508060000160009054906101000a900473ffffffffffffffffffffffffffffffffffffffff1690806001015490806002018054600181600116156101000203166002900480601f016020809104026020016040519081016040528092919081815260200182805460018160011615610100020316600290048015611d175780601f10611cec57610100808354040283529160200191611d17565b820191906000526020600020905b815481529060010190602001808311611cfa57829003601f168201915b505050505090806003018054600181600116156101000203166002900480601f016020809104026020016040519081016040528092919081815260200182805460018160011615610100020316600290048015611db55780601f10611d8a57610100808354040283529160200191611db5565b820191906000526020600020905b815481529060010190602001808311611d9857829003601f168201915b5050505050905084565b60055481565b6000809054906101000a900473ffffffffffffffffffffffffffffffffffffffff1673ffffffffffffffffffffffffffffffffffffffff163373ffffffffffffffffffffffffffffffffffffffff1614611e1e57600080fd5b6003600081548092919060010191905055506040518061010001604052808873ffffffffffffffffffffffffffffffffffffffff16815260200160035481526020018781526020018681526020018581526020018481526020018381526020018281525060086000600354815260200190815260200160002060008201518160000160006101000a81548173ffffffffffffffffffffffffffffffffffffffff021916908373ffffffffffffffffffffffffffffffffffffffff160217905550602082015181600101556040820151816002019080519060200190611f04929190613328565b506060820151816003019080519060200190611f21929190613328565b506080820151816004019080519060200190611f3e929190613328565b5060a0820151816005019080519060200190611f5b929190613328565b5060c0820151816006015560e0820151816007019080519060200190611f82929190613328565b5090505050505050505050565b6000809054906101000a900473ffffffffffffffffffffffffffffffffffffffff1673ffffffffffffffffffffffffffffffffffffffff163373ffffffffffffffffffffffffffffffffffffffff1614611fe857600080fd5b60056000815480929190600101919050555060405180608001604052808473ffffffffffffffffffffffffffffffffffffffff168152602001600554815260200183815260200182815250600a6000600554815260200190815260200160002060008201518160000160006101000a81548173ffffffffffffffffffffffffffffffffffffffff021916908373ffffffffffffffffffffffffffffffffffffffff1602179055506020820151816001015560408201518160020190805190602001906120b5929190613328565b5060608201518160030190805190602001906120d2929190613328565b50905050505050565b6000811180156120ed57506001548111155b6120f657600080fd5b6000612101336131a6565b90506000811161211057600080fd5b6000600581111561211d57fe5b6006600084815260200190815260200160002060070160009054906101000a900460ff16600581111561214c57fe5b1461215657600080fd5b80600660008481526020019081526020016000206003018190555060016006600084815260200190815260200160002060070160006101000a81548160ff021916908360058111156121a457fe5b02179055505050565b6000811180156121bf57506001548111155b6121c857600080fd5b60006121d333613024565b9050600081116121e257600080fd5b6006600083815260200190815260200160002060060154811461220457600080fd5b6004600581111561221157fe5b6006600084815260200190815260200160002060070160009054906101000a900460ff16600581111561224057fe5b1461224a57600080fd5b60056006600084815260200190815260200160002060070160006101000a81548160ff0219169083600581111561227d57fe5b02179055505050565b60008111801561229857506001548111155b6122a157600080fd5b60006122ac33613267565b9050600081116122bb57600080fd5b600160058111156122c857fe5b6006600084815260200190815260200160002060070160009054906101000a900460ff1660058111156122f757fe5b1461230157600080fd5b80600660008481526020019081526020016000206004018190555060026006600084815260200190815260200160002060070160006101000a81548160ff0219169083600581111561234f57fe5b02179055505050565b60015481565b6000809054906101000a900473ffffffffffffffffffffffffffffffffffffffff1681565b6000809054906101000a900473ffffffffffffffffffffffffffffffffffffffff1673ffffffffffffffffffffffffffffffffffffffff163373ffffffffffffffffffffffffffffffffffffffff16146123dc57600080fd5b60006002541180156123f057506000600354115b80156123fe57506000600454115b801561240c57506000600554115b61241557600080fd5b600160008154809291906001019190505550604051806101400160405280848152602001868152602001858152602001600081526020016000815260200160008152602001600081526020016000600581111561246e57fe5b81526020018381526020018281525060066000600154815260200190815260200160002060008201518160000190805190602001906124ae929190613328565b5060208201518160010190805190602001906124cb929190613328565b5060408201518160020190805190602001906124e8929190613328565b50606082015181600301556080820151816004015560a0820151816005015560c0820151816006015560e08201518160070160006101000a81548160ff0219169083600581111561253557fe5b0217905550610100820151816008019080519060200190612557929190613328565b5061012082015181600901559050505050505050565b60086020528060005260406000206000915090508060000160009054906101000a900473ffffffffffffffffffffffffffffffffffffffff1690806001015490806002018054600181600116156101000203166002900480601f0160208091040260200160405190810160405280929190818152602001828054600181600116156101000203166002900480156126455780601f1061261a57610100808354040283529160200191612645565b820191906000526020600020905b81548152906001019060200180831161262857829003601f168201915b505050505090806003018054600181600116156101000203166002900480601f0160208091040260200160405190810160405280929190818152602001828054600181600116156101000203166002900480156126e35780601f106126b8576101008083540402835291602001916126e3565b820191906000526020600020905b8154815290600101906020018083116126c657829003601f168201915b505050505090806004018054600181600116156101000203166002900480601f0160208091040260200160405190810160405280929190818152602001828054600181600116156101000203166002900480156127815780601f1061275657610100808354040283529160200191612781565b820191906000526020600020905b81548152906001019060200180831161276457829003601f168201915b505050505090806005018054600181600116156101000203166002900480601f01602080910402602001604051908101604052809291908181526020018280546001816001161561010002031660029004801561281f5780601f106127f45761010080835404028352916020019161281f565b820191906000526020600020905b81548152906001019060200180831161280257829003601f168201915b505050505090806006015490806007018054600181600116156101000203166002900480601f0160208091040260200160405190810160405280929190818152602001828054600181600116156101000203166002900480156128c35780601f10612898576101008083540402835291602001916128c3565b820191906000526020600020905b8154815290600101906020018083116128a657829003601f168201915b5050505050905088565b60025481565b60606000600154116128e457600080fd5b600060058111156128f157fe5b6006600084815260200190815260200160002060070160009054906101000a900460ff16600581111561292057fe5b1415612963576040518060400160405280601081526020017f4d65646963696e65204f726465726564000000000000000000000000000000008152509050612bde565b6001600581111561297057fe5b6006600084815260200190815260200160002060070160009054906101000a900460ff16600581111561299f57fe5b14156129e2576040518060400160405280601981526020017f526177204d6174657269616c20537570706c79205374616765000000000000008152509050612bde565b600260058111156129ef57fe5b6006600084815260200190815260200160002060070160009054906101000a900460ff166005811115612a1e57fe5b1415612a61576040518060400160405280601381526020017f4d616e75666163747572696e67205374616765000000000000000000000000008152509050612bde565b60036005811115612a6e57fe5b6006600084815260200190815260200160002060070160009054906101000a900460ff166005811115612a9d57fe5b1415612ae0576040518060400160405280601281526020017f446973747269627574696f6e20537461676500000000000000000000000000008152509050612bde565b60046005811115612aed57fe5b6006600084815260200190815260200160002060070160009054906101000a900460ff166005811115612b1c57fe5b1415612b5f576040518060400160405280600c81526020017f52657461696c20537461676500000000000000000000000000000000000000008152509050612bde565b600580811115612b6b57fe5b6006600084815260200190815260200160002060070160009054906101000a900460ff166005811115612b9a57fe5b1415612bdd576040518060400160405280600d81526020017f4d65646963696e6520536f6c64000000000000000000000000000000000000008152509050612bde565b5b919050565b6006602052806000526040600020600091509050806000018054600181600116156101000203166002900480601f016020809104026020016040519081016040528092919081815260200182805460018160011615610100020316600290048015612c8f5780601f10612c6457610100808354040283529160200191612c8f565b820191906000526020600020905b815481529060010190602001808311612c7257829003601f168201915b505050505090806001018054600181600116156101000203166002900480601f016020809104026020016040519081016040528092919081815260200182805460018160011615610100020316600290048015612d2d5780601f10612d0257610100808354040283529160200191612d2d565b820191906000526020600020905b815481529060010190602001808311612d1057829003601f168201915b505050505090806002018054600181600116156101000203166002900480601f016020809104026020016040519081016040528092919081815260200182805460018160011615610100020316600290048015612dcb5780601f10612da057610100808354040283529160200191612dcb565b820191906000526020600020905b815481529060010190602001808311612dae57829003601f168201915b5050505050908060030154908060040154908060050154908060060154908060070160009054906101000a900460ff1690806008018054600181600116156101000203166002900480601f016020809104026020016040519081016040528092919081815260200182805460018160011615610100020316600290048015612e945780601f10612e6957610100808354040283529160200191612e94565b820191906000526020600020905b815481529060010190602001808311612e7757829003601f168201915b505050505090806009015490508a565b60076020528060005260406000206000915090508060000160009054906101000a900473ffffffffffffffffffffffffffffffffffffffff1690806001015490806002018054600181600116156101000203166002900480601f016020809104026020016040519081016040528092919081815260200182805460018160011615610100020316600290048015612f7c5780601f10612f5157610100808354040283529160200191612f7c565b820191906000526020600020905b815481529060010190602001808311612f5f57829003601f168201915b505050505090806003018054600181600116156101000203166002900480601f01602080910402602001604051908101604052809291908181526020018280546001816001161561010002031660029004801561301a5780601f10612fef5761010080835404028352916020019161301a565b820191906000526020600020905b815481529060010190602001808311612ffd57829003601f168201915b5050505050905084565b6000806005541161303457600080fd5b6000600190505b60055481116130da578273ffffffffffffffffffffffffffffffffffffffff16600a600083815260200190815260200160002060000160009054906101000a900473ffffffffffffffffffffffffffffffffffffffff1673ffffffffffffffffffffffffffffffffffffffff1614156130cd57600a6000828152602001908152602001600020600101549150506130e0565b808060010191505061303b565b50600090505b919050565b600080600454116130f557600080fd5b6000600190505b600454811161319b578273ffffffffffffffffffffffffffffffffffffffff166009600083815260200190815260200160002060000160009054906101000a900473ffffffffffffffffffffffffffffffffffffffff1673ffffffffffffffffffffffffffffffffffffffff16141561318e5760096000828152602001908152602001600020600101549150506131a1565b80806001019150506130fc565b50600090505b919050565b600080600254116131b657600080fd5b6000600190505b600254811161325c578273ffffffffffffffffffffffffffffffffffffffff166007600083815260200190815260200160002060000160009054906101000a900473ffffffffffffffffffffffffffffffffffffffff1673ffffffffffffffffffffffffffffffffffffffff16141561324f576007600082815260200190815260200160002060010154915050613262565b80806001019150506131bd565b50600090505b919050565b6000806003541161327757600080fd5b6000600190505b600354811161331d578273ffffffffffffffffffffffffffffffffffffffff166008600083815260200190815260200160002060000160009054906101000a900473ffffffffffffffffffffffffffffffffffffffff1673ffffffffffffffffffffffffffffffffffffffff161415613310576008600082815260200190815260200160002060010154915050613323565b808060010191505061327e565b50600090505b919050565b828054600181600116156101000203166002900490600052602060002090601f016020900481019282601f1061336957805160ff1916838001178555613397565b82800160010185558215613397579182015b8281111561339657825182559160200191906001019061337b565b5b5090506133a491906133a8565b5090565b6133ca91905b808211156133c65760008160009055506001016133ae565b5090565b9056fea265627a7a7231582058519729e5db836916f1d461c32860df03bd5d8da341a080904cb600d6b6c7ae64736f6c63430005100032",
  "source": "// SPDX-License-Identifier: MIT\npragma solidity >=0.4.22 <0.9.0;\n\ncontract SupplyChain {\n    address public Owner;\n\n    constructor() public {\n        Owner = msg.sender;\n    }\n\n    modifier onlyByOwner() {\n        require(msg.sender == Owner);\n        _;\n    }\n\n    enum STAGE {\n        Init,\n        RawMaterialSupply,\n        Manufacture,\n        Distribution,\n        Retail,\n        sold\n    }\n\n    uint256 public medicineCtr = 0;\n    uint256 public rmsCtr = 0;\n    uint256 public manCtr = 0;\n    uint256 public disCtr = 0;\n    uint256 public retCtr = 0;\n\n    struct medicine {\n        string id;\n        string name;\n        string description;\n        uint256 RMSid;\n        uint256 MANid;\n        uint256 DISid;\n        uint256 RETid;\n        STAGE stage;\n        string retailer;\n        uint256 orderQuantity; // Yeni alan\n    }\n\n    mapping(uint256 => medicine) public MedicineStock;\n\n    function showStage(uint256 _medicineID) public view returns (string memory) {\n        require(medicineCtr > 0);\n        if (MedicineStock[_medicineID].stage == STAGE.Init)\n            return \"Medicine Ordered\";\n        else if (MedicineStock[_medicineID].stage == STAGE.RawMaterialSupply)\n            return \"Raw Material Supply Stage\";\n        else if (MedicineStock[_medicineID].stage == STAGE.Manufacture)\n            return \"Manufacturing Stage\";\n        else if (MedicineStock[_medicineID].stage == STAGE.Distribution)\n            return \"Distribution Stage\";\n        else if (MedicineStock[_medicineID].stage == STAGE.Retail)\n            return \"Retail Stage\";\n        else if (MedicineStock[_medicineID].stage == STAGE.sold)\n            return \"Medicine Sold\";\n    }\n\n    struct rawMaterialSupplier {\n        address addr;\n        uint256 id;\n        string name;\n        string place;\n    }\n\n    mapping(uint256 => rawMaterialSupplier) public RMS;\n\n    struct manufacturer {\n        address addr;\n        uint256 id;\n        string name;\n        string place;\n        string drugName;\n        string drugID;\n        uint256 serialNumber;\n        string stock;\n    }\n\n    mapping(uint256 => manufacturer) public MAN;\n\n    struct distributor {\n        address addr;\n        uint256 id;\n        string name;\n        string place;\n    }\n\n    mapping(uint256 => distributor) public DIS;\n\n    struct retailer {\n        address addr;\n        uint256 id;\n        string name;\n        string place;\n    }\n\n    mapping(uint256 => retailer) public RET;\n\n    function addRMS(\n        address _address,\n        string memory _name,\n        string memory _place\n    ) public onlyByOwner() {\n        rmsCtr++;\n        RMS[rmsCtr] = rawMaterialSupplier(_address, rmsCtr, _name, _place);\n    }\n\n    function addManufacturer(\n        address _address,\n        string memory _name,\n        string memory _place,\n        string memory _drugName,\n        string memory _drugID,\n        uint256 _serialNumber,\n        string memory _stock\n    ) public onlyByOwner() {\n        manCtr++;\n        MAN[manCtr] = manufacturer(_address, manCtr, _name, _place, _drugName, _drugID, _serialNumber, _stock);\n    }\n\n    function addDistributor(\n        address _address,\n        string memory _name,\n        string memory _place\n    ) public onlyByOwner() {\n        disCtr++;\n        DIS[disCtr] = distributor(_address, disCtr, _name, _place);\n    }\n\n    function addRetailer(\n        address _address,\n        string memory _name,\n        string memory _place\n    ) public onlyByOwner() {\n        retCtr++;\n        RET[retCtr] = retailer(_address, retCtr, _name, _place);\n    }\n\n    function RMSsupply(uint256 _medicineID) public {\n        require(_medicineID > 0 && _medicineID <= medicineCtr);\n        uint256 _id = findRMS(msg.sender);\n        require(_id > 0);\n        require(MedicineStock[_medicineID].stage == STAGE.Init);\n        MedicineStock[_medicineID].RMSid = _id;\n        MedicineStock[_medicineID].stage = STAGE.RawMaterialSupply;\n    }\n\n    function findRMS(address _address) private view returns (uint256) {\n        require(rmsCtr > 0);\n        for (uint256 i = 1; i <= rmsCtr; i++) {\n            if (RMS[i].addr == _address) return RMS[i].id;\n        }\n        return 0;\n    }\n\n    function Manufacturing(uint256 _medicineID) public {\n        require(_medicineID > 0 && _medicineID <= medicineCtr);\n        uint256 _id = findMAN(msg.sender);\n        require(_id > 0);\n        require(MedicineStock[_medicineID].stage == STAGE.RawMaterialSupply);\n        MedicineStock[_medicineID].MANid = _id;\n        MedicineStock[_medicineID].stage = STAGE.Manufacture;\n    }\n\n    function findMAN(address _address) private view returns (uint256) {\n        require(manCtr > 0);\n        for (uint256 i = 1; i <= manCtr; i++) {\n            if (MAN[i].addr == _address) return MAN[i].id;\n        }\n        return 0;\n    }\n\n    function Distribute(uint256 _medicineID) public {\n        require(_medicineID > 0 && _medicineID <= medicineCtr);\n        uint256 _id = findDIS(msg.sender);\n        require(_id > 0);\n        require(MedicineStock[_medicineID].stage == STAGE.Manufacture);\n        MedicineStock[_medicineID].DISid = _id;\n        MedicineStock[_medicineID].stage = STAGE.Distribution;\n    }\n\n    function findDIS(address _address) private view returns (uint256) {\n        require(disCtr > 0);\n        for (uint256 i = 1; i <= disCtr; i++) {\n            if (DIS[i].addr == _address) return DIS[i].id;\n        }\n        return 0;\n    }\n\n    function Retail(uint256 _medicineID) public {\n        require(_medicineID > 0 && _medicineID <= medicineCtr);\n        uint256 _id = findRET(msg.sender);\n        require(_id > 0);\n        require(MedicineStock[_medicineID].stage == STAGE.Distribution);\n        MedicineStock[_medicineID].RETid = _id;\n        MedicineStock[_medicineID].stage = STAGE.Retail;\n    }\n\n    function findRET(address _address) private view returns (uint256) {\n        require(retCtr > 0);\n        for (uint256 i = 1; i <= retCtr; i++) {\n            if (RET[i].addr == _address) return RET[i].id;\n        }\n        return 0;\n    }\n\n    function sold(uint256 _medicineID) public {\n        require(_medicineID > 0 && _medicineID <= medicineCtr);\n        uint256 _id = findRET(msg.sender);\n        require(_id > 0);\n        require(_id == MedicineStock[_medicineID].RETid);\n        require(MedicineStock[_medicineID].stage == STAGE.Retail);\n        MedicineStock[_medicineID].stage = STAGE.sold;\n    }\n\n    function addMedicine(\n        string memory _name,\n        string memory _description,\n        string memory _id,\n        string memory _retailer,\n        uint256 _orderQuantity // Yeni parametre\n    ) public onlyByOwner() {\n        require((rmsCtr > 0) && (manCtr > 0) && (disCtr > 0) && (retCtr > 0));\n        medicineCtr++;\n        MedicineStock[medicineCtr] = medicine(\n            _id,\n            _name,\n            _description,\n            0,\n            0,\n            0,\n            0,\n            STAGE.Init,\n            _retailer,\n            _orderQuantity // Sipari adeti burada kaydediliyor\n        );\n    }\n}\n",
  "sourcePath": "/Users/furkantunc/Desktop/SCB/contracts/SupplyChain.sol",
  "compiler": {
    "name": "solc",
    "version": "0.5.16+commit.9c3226ce.Emscripten.clang"
  },
  "schemaVersion": "3.4.16",
  "updatedAt": "2024-05-23T23:52:21.594Z",
  "networkType": "ethereum",
  "devdoc": {
    "methods": {}
  },
  "userdoc": {
    "methods": {}
  }
}